:1000000045C069C068C067C066C065C064C063C0E1
:1000100062C011C460C04CC37DC35DC05CC05BC026
:100020005AC06AC058C00000000000000000000470
:1000300005070000000000000000000000010204AD
:10004000081020408001020408102001020408105A
:100050002040804004040404040404040202020258
:10006000020203030303030302020300000000363D
:10007000003300300000000000380035003200007E
:1000800000000037003400310000B80311241FBE07
:10009000CFE5D4E0DEBFCDBF10E0A0E6B0E0EEE1FA
:1000A000FDE002C005900D92A038B107D9F721E01C
:1000B000A0E8B0E001C01D92A235B207E1F710E060
:1000C000C6E4D0E003C02197FE010CD6C534D107A9
:1000D000D1F7A7D322C694CF909383008093820058
:1000E00070938100609380000895F894880F82B91E
:1000F00085EC86BF789408951F920F920FB60F92E9
:1001000011242F933F934F935F936F937F938F931C
:100110009F93AF93BF93EF93FF9381B1887F803814
:1001200001F1A8F4882321F185EC86BFFF91EF91BE
:10013000BF91AF919F918F917F916F915F914F91FF
:100140003F912F910F900FBE0F901F901895883AF6
:1001500011F0883B49F7E0918000F091810009950A
:10016000E3CF83B1E0918200F09183000995DCCF69
:1001700016BEDACF089580919F0083B908958091CB
:1001800099008F5F8370809399008230D1F0833023
:1001900021F1813059F094988E9A969A80E116D484
:1001A0008E989093A5008093A400089593988D9ABB
:1001B000959A81E10BD48D989093A7008093A60027
:1001C0000895C298B89AC09A8EE000D4C098B898A2
:1001D0009093A9008093A8000895C1988F9A979A48
:1001E0008FE0F4D38F989093AB008093AA0008958A
:1001F000CF93DF93CAE0D0E061E084E049D461E0CE
:1002000083E046D461E08AE043D461E089E040D4F1
:1002100064E170E080E090E08AD360E084E038D46C
:1002200060E083E035D460E08AE032D460E089E0C9
:100230002FD464E170E080E090E079D32197E1F67B
:10024000DF91CF910895CF93DF9361E084E020D4D4
:1002500061E083E01DD461E08AE01AD461E089E0C6
:1002600017D46AE070E080E090E061D360E084E061
:100270000FD4CBE9D0E0188260E083E009D4198282
:1002800060E08AE005D41A8260E089E001D41B8234
:10029000DF91CF910895DF92EF92FF920F931F931A
:1002A000CF93DF9341E9E42E40E0F42E09E810E01B
:1002B000D0E0C0E0CE011CD5D82ECE01019618D5D5
:1002C00090E0982F88278D0D911DF70181939193D0
:1002D0007F01CE0102960CD5D82ECE01039608D50B
:1002E00090E0982F88278D0D911DF80181939193AF
:1002F0008F012496C031D105E9F6DF91CF911F918E
:100300000F91FF90EF90DF9073CFEF92FF920F93DA
:100310001F93CF93DF9381E9E82E80E0F82E09E860
:1003200010E0D0E0C0E0F7016081F2E0EF0EF11CD8
:10033000CE01E6D4F70132976181CE010196E0D477
:10034000F80160810E5F1F4FCE010296D9D4F801EB
:1003500032976181CE010396D3D42496C031D10562
:1003600011F7DF91CF911F910F91FF90EF9040CF48
:10037000CF93DF93809188008F5F83708093880094
:10038000CBE9D0E0688184E083D3698183E080D3C6
:100390006A818AE07DD36B8189E0DF91CF9178C358
:1003A00082E0A3D321E0892B09F020E0822F089579
:1003B000CF92DF92EF92FF920F931F93CF93DF9331
:1003C0008091840090918500A0918600B091870073
:1003D000892B8A2B8B2BD1F5E3DF8823B9F175D2DA
:1003E00060938400709385008093860090938700CB
:1003F00061E08DE04DD310929200109291008FEF4A
:1004000093E090938A008093890010929400109258
:10041000930090938C0080938B0010929600109222
:10042000950090938E0080938D001092980010920A
:1004300097009093900080938F00DF91CF911F9150
:100440000F91FF90EF90DF90CF90089580918400FE
:1004500090918500A0918600B0918700892B8A2B0E
:100460008B2B09F073C08091840090918500A0913E
:100470008600B0918700892B8A2B8B2B09F08DC0C9
:1004800041E950E0C9E8D0E0ABE9B0E030E020E07D
:1004900061E0FA0181919191AF01E991F9918E0F9B
:1004A0009F1F96958795F901EE0FFF1FEC55FF4FA3
:1004B000E080F1808C01065F1F4F0E151F0508F0CC
:1004C000A3C01C92F901E056FF4F10822F5F3F4FEF
:1004D000119624303105E9F69091A00080919A00A0
:1004E000992309F49FC0816080939A009091A100A4
:1004F00080919A00992309F497C0826080939A00B2
:100500009091A20080919A00992309F48FC0846091
:1005100080939A009091A30080919A00992309F406
:1005200087C0886080939A008DE0DFD220919A0086
:10053000892B09F07FC0206120939A0080919A0056
:10054000806680939A0080939F0077CFBED1009100
:100550008400109185002091860030918700601BF7
:10056000710B820B930B693873418105910508F477
:100570007ACF60E08DE08CD21092840010928500DA
:100580001092860010928700DF91CF911F910F91FA
:10059000FF90EF90DF90CF90B8CE91E9C92E90E018
:1005A000D92E29E8E22E20E0F22E10E000E0E8014A
:1005B000CC0FDD1FFE01EC55FF4F20813181D601AC
:1005C0008D919D916D018217930738F480819181FF
:1005D000FD0132979183808336DECC55DF4F288131
:1005E0003981F701819191917F012817390730F402
:1005F0008881998132979183808325DE0F5F1F4F19
:1006000004301105A1F619CF0190F081E02D0A9771
:10061000E817F90708F05ACF6C93F901E056FF4F3D
:10062000608354CF8E7F60CF8D7F68CF8B7F70CFFC
:10063000877F78CF2F7E80CF6BEB70E08AEB90E0E6
:100640004BDD84E252CDEF92FF920F931F93CF9335
:10065000DF93C5E6D0E081E6E82E80E0F82E09E6DB
:1006600010E061E08991D8D161E0F70181917F01CB
:10067000D3D160E0F80181918F01CED1F0E0C9368D
:10068000DF0779F762E082E0C7D162E08DE0C4D194
:1006900002DE68EE73E080E090E049D1DF91CF9117
:1006A0001F910F91FF90EF90C7CF69DD81DE60CE83
:1006B0001F920F920FB60F9211242F938F939F9337
:1006C000EF93FF93E091BC00F091BD008081E09139
:1006D000C200F091C30082FD1BC090818091C500D3
:1006E0008F5F8F732091C600821741F0E091C500A3
:1006F000F0E0E455FF4F958F8093C500FF91EF9197
:100700009F918F912F910F900FBE0F901F90189572
:100710008081F4CF1F920F920FB60F9211242F9366
:100720003F934F935F936F937F938F939F93AF9379
:10073000BF93EF93FF938CEA90E048D2FF91EF9143
:10074000BF91AF919F918F917F916F915F914F91E9
:100750003F912F910F900FBE0F901F9018958CEA2C
:1007600090E0EBD121E0892B09F420E0822F08955D
:10077000ECEAF0E01382128288EE93E0A0E0B0E0B1
:1007800084839583A683B78381E790E091838083F8
:1007900080E490E09587848729E230E037872687D8
:1007A0002BE230E0318B208B2AE230E0338B228B3E
:1007B000958B848B8CE290E0978B868B118E128EBA
:1007C000138E148E0895AF92BF92CF92DF92EF9264
:1007D000FF920F931F93CF93DF936C017B018B01EB
:1007E000040F151FEB015E01AE18BF08C017D1073B
:1007F00059F06991D601ED91FC910190F081E02DC5
:10080000C6010995892B79F7C501DF91CF911F9119
:100810000F91FF90EF90DF90CF90BF90AF90089531
:100820000895BBD0FDDF0FDFCAEDD5E03EDF209796
:10083000E9F3C0D1FBCF1F920F920FB60F92112494
:100840002F933F938F939F93AF93BF9380914E01CC
:1008500090914F01A0915001B091510130914D0103
:1008600023E0230F2D3768F126E8230F0296A11D00
:10087000B11D20934D0180934E0190934F01A093A1
:100880005001B09351018091490190914A01A0918A
:100890004B01B0914C010196A11DB11D80934901FE
:1008A00090934A01A0934B01B0934C01BF91AF913B
:1008B0009F918F913F912F910F900FBE0F901F909E
:1008C00018950196A11DB11DD4CF2FB7F894609152
:1008D0004E0170914F0180915001909151012FBFB5
:1008E00008953FB7F8948091490190914A01A091F1
:1008F0004B01B0914C0122B708B600FE05C02F3F56
:1009000019F00196A11DB11D3FBFBA2FA92F982F35
:100910008827BC01CD01620F711D811D911D42E030
:10092000660F771F881F991F4A95D1F708958F92F8
:100930009F92AF92BF92CF92DF92EF92FF926B01A4
:100940007C01CFDF4B015C01C114D104E104F1044F
:10095000D9F0C7D1C6DF681979098A099B09683EB1
:1009600073408105910580F321E0C21AD108E108A6
:10097000F10888EE880E83E0981EA11CB11CC114FA
:10098000D104E104F10431F7FF90EF90DF90CF90B4
:10099000BF90AF909F908F900895789483B78360B5
:1009A00083BF89B7816089BF82E08EBD8EB58160CB
:1009B0008EBD8FB581608FBD85B5846085BD85B5E1
:1009C000806485BD87E886B91AB80895883020F01C
:1009D0008D3008F48DE08E502091600090E4299FC6
:1009E000900111248770822B87B9369A3699FECFF1
:1009F00084B195B10895853041F0873049F0843055
:100A000051F48FB58F778FBD08958FB58F7DFBCF54
:100A100085B58F7D85BD0895CF93DF9390E0FC0170
:100A2000E35CFF4F24918C5A9F4FFC0184918823F3
:100A3000C9F090E0880F991FFC01E158FF4FA59184
:100A4000B491FC01EB58FF4FC591D49161110DC0D9
:100A50009FB7F8948C91209582238C9388812823CA
:100A600028839FBFDF91CF910895623051F49FB7E3
:100A7000F8943C91822F809583238C93E8812E2BD0
:100A8000EFCF8FB7F894EC912E2B2C938FBFEACF3A
:100A90001F93CF93DF93282F30E0F901EA5DFF4FDA
:100AA0008491F901E35CFF4FD491F901EC5AFF4FB7
:100AB000C491CC23A1F0162F81119DDFEC2FF0E023
:100AC000EE0FFF1FEB58FF4FA591B4918FB7F8942D
:100AD000EC91111108C0D095DE23DC938FBFDF911C
:100AE000CF911F910895DE2BF8CFCF93DF93282F5E
:100AF00030E0F901EA5DFF4F8491F901E35CFF4FBB
:100B0000D491F901EC5AFF4FC491CC2399F0811193
:100B100072DFEC2FF0E0EE0FFF1FE559FF4FA591BC
:100B2000B491EC91ED2381E090E009F480E0DF9155
:100B3000CF91089580E090E0FACFFC01918D228D55
:100B4000892F90E0805C9F4F821B91098F739927BA
:100B50000895FC01918D828D981731F0828DE80FF8
:100B6000F11D858D90E008958FEF9FEF0895FC01B2
:100B7000918D828D981761F0A28DAE0FBF2FB11DA0
:100B80005D968C91928D9F5F9F73928F90E00895F8
:100B90008FEF9FEF0895FC01538D448D252F30E09A
:100BA000842F90E0821B930B541710F0CF9608957A
:100BB000019708958FEA93E0892B39F080E090E067
:100BC000892B19F0CCDD81111BCA0895FC01A48D7D
:100BD000A80FB92FB11DA35ABF4F2C91848D90E05F
:100BE00001968F739927848FA689B7892C93A08942
:100BF000B1898C9182748C93938D848D981306C0E7
:100C00000288F389E02D80818F7D80830895CF93C2
:100C1000DF93EC01888D8823B1F0AA89BB89E8892C
:100C2000F9898C9185FD03C0808186FD0CC00FB6CB
:100C300007FCF7CF8C9185FFF2CF808185FFEDCF48
:100C4000CE01C4DFEACFDF91CF910895EF92FF92FA
:100C50000F931F93CF93DF93EC0181E0888F9B8DDF
:100C60008C8D981319C0E889F989808185FF14C09B
:100C70009FB7F894EE89FF896083E889F9898081BC
:100C8000827480839FBF81E090E0DF91CF911F91BC
:100C90000F91FF90EF900895F62E0B8D10E00F5FEF
:100CA0001F4F0F731127E02E8C8D8E110BC00FB6C6
:100CB00007FCFACFE889F989808185FFF5CFCE015D
:100CC00085DFF2CFEB8DEC0FFD2FF11DE35AFF4FC7
:100CD000F0829FB7F8940B8FEA89FB89808180624C
:100CE000D0CF0895EE0FFF1F0590F491E02D0994E9
:100CF000E199FECF9FBB8EBBE09A99278DB30895F3
:100D0000262FE199FECF9FBB8EBB2DBB0FB6F8946B
:0E0D1000E29AE19A0FBE01960895F894FFCF83
:100D1E00010605080704030A0910110E0F00000052
:100D2E00002606E303CB0507069D05B705A90500BA
:00000001FF
